{
  "_format": "hh-sol-artifact-1",
  "contractName": "Verifier_transfer",
  "sourceName": "contracts/verifier_transfer.sol",
  "abi": [
    {
      "inputs": [
        {
          "internalType": "uint256[2]",
          "name": "a",
          "type": "uint256[2]"
        },
        {
          "internalType": "uint256[2][2]",
          "name": "b",
          "type": "uint256[2][2]"
        },
        {
          "internalType": "uint256[2]",
          "name": "c",
          "type": "uint256[2]"
        },
        {
          "internalType": "uint256[34]",
          "name": "input",
          "type": "uint256[34]"
        }
      ],
      "name": "verifyProof",
      "outputs": [
        {
          "internalType": "bool",
          "name": "r",
          "type": "bool"
        }
      ],
      "stateMutability": "view",
      "type": "function"
    }
  ],
  "bytecode": "0x608060405234801561001057600080fd5b50613701806100206000396000f3fe608060405234801561001057600080fd5b506004361061002b5760003560e01c80638525a61d14610030575b600080fd5b61004a600480360381019061004591906130b2565b610060565b60405161005791906131f8565b60405180910390f35b600061006a612dbd565b6040518060400160405280876000600281106100af577f4e487b7100000000000000000000000000000000000000000000000000000000600052603260045260246000fd5b60200201518152602001876001600281106100f3577f4e487b7100000000000000000000000000000000000000000000000000000000600052603260045260246000fd5b602002015181525081600001819052506040518060400160405280604051806040016040528088600060028110610153577f4e487b7100000000000000000000000000000000000000000000000000000000600052603260045260246000fd5b6020020151600060028110610191577f4e487b7100000000000000000000000000000000000000000000000000000000600052603260045260246000fd5b60200201518152602001886000600281106101d5577f4e487b7100000000000000000000000000000000000000000000000000000000600052603260045260246000fd5b6020020151600160028110610213577f4e487b7100000000000000000000000000000000000000000000000000000000600052603260045260246000fd5b60200201518152508152602001604051806040016040528088600160028110610265577f4e487b7100000000000000000000000000000000000000000000000000000000600052603260045260246000fd5b60200201516000600281106102a3577f4e487b7100000000000000000000000000000000000000000000000000000000600052603260045260246000fd5b60200201518152602001886001600281106102e7577f4e487b7100000000000000000000000000000000000000000000000000000000600052603260045260246000fd5b6020020151600160028110610325577f4e487b7100000000000000000000000000000000000000000000000000000000600052603260045260246000fd5b6020020151815250815250816020018190525060405180604001604052808560006002811061037d577f4e487b7100000000000000000000000000000000000000000000000000000000600052603260045260246000fd5b60200201518152602001856001600281106103c1577f4e487b7100000000000000000000000000000000000000000000000000000000600052603260045260246000fd5b602002015181525081604001819052506000602267ffffffffffffffff811115610414577f4e487b7100000000000000000000000000000000000000000000000000000000600052604160045260246000fd5b6040519080825280602002602001820160405280156104425781602001602082028036833780820191505090505b50905060005b60228110156104e75784816022811061048a577f4e487b7100000000000000000000000000000000000000000000000000000000600052603260045260246000fd5b60200201518282815181106104c8577f4e487b7100000000000000000000000000000000000000000000000000000000600052603260045260246000fd5b60200260200101818152505080806104df906134a6565b915050610448565b5060006104f48284610514565b14156105055760019250505061050c565b6000925050505b949350505050565b6000807f30644e72e131a029b85045b68181585d2833e84879b9709143e1f593f00000019050600061054461079f565b90508060800151516001865161055a919061337b565b1461059a576040517f08c379a000000000000000000000000000000000000000000000000000000000815260040161059190613213565b60405180910390fd5b60006040518060400160405280600081526020016000815250905060005b86518110156106fb57838782815181106105fb577f4e487b7100000000000000000000000000000000000000000000000000000000600052603260045260246000fd5b602002602001015110610643576040517f08c379a000000000000000000000000000000000000000000000000000000000815260040161063a90613253565b60405180910390fd5b6106e6826106e1856080015160018561065c919061337b565b81518110610693577f4e487b7100000000000000000000000000000000000000000000000000000000600052603260045260246000fd5b60200260200101518a85815181106106d4577f4e487b7100000000000000000000000000000000000000000000000000000000600052603260045260246000fd5b6020026020010151612072565b6121c1565b915080806106f3906134a6565b9150506105b8565b5061074b81836080015160008151811061073e577f4e487b7100000000000000000000000000000000000000000000000000000000600052603260045260246000fd5b60200260200101516121c1565b905061078161075d866000015161235c565b8660200151846000015185602001518587604001518b604001518960600151612401565b6107915760019350505050610799565b600093505050505b92915050565b6107a7612df0565b60405180604001604052807f2d4d9aa7e302d9df41749d5507949d05dbea33fbb16c643b22f599a2be6df2e281526020017f14bedd503c37ceb061d8ec60209fe345ce89830a19230301f076caff004d19268152508160000181905250604051806040016040528060405180604001604052807f0967032fcbf776d1afc985f88877f182d38480a653f2decaa9794cbc3bf3060c81526020017f0e187847ad4c798374d0d6732bf501847dd68bc0e071241e0213bc7fc13db7ab815250815260200160405180604001604052807f304cfbd1e08a704a99f5e847d93f8c3caafddec46b7a0d379da69a4d112346a781526020017f1739c1b1a457a8c7313123d24d2f9192f896b7c63eea05a9d57f06547ad0cec88152508152508160200181905250604051806040016040528060405180604001604052807f198e9393920d483a7260bfb731fb5d25f1aa493335a9e71297e485b7aef312c281526020017f1800deef121f1e76426a00665e5c4479674322d4f75edadd46debd5cd992f6ed815250815260200160405180604001604052807f090689d0585ff075ec9e99ad690c3395bc4b313370b38ef355acdadcd122975b81526020017f12c85ea5db8c6deb4aab71808dcb408fe3d1e7690c43d37b4ce6cc0166fa7daa8152508152508160400181905250604051806040016040528060405180604001604052807f28db1b6d055c94e065dd4d998c3495cb9f66ae0dc847053db2e883edf636e80281526020017f14749e12dc9746f40c3491d5356d067e35939fb4e2e4e48cc946181553f4b2e0815250815260200160405180604001604052807f2849520cd86db10f52c2f65a375fe2af05d5a77835215aaa6aa749b150862fdc81526020017f11913cb6a297cf3d882e02367c26e028d033df0ce5d82cd11c98c5f61e5ebba98152508152508160600181905250602367ffffffffffffffff811115610a94577f4e487b7100000000000000000000000000000000000000000000000000000000600052604160045260246000fd5b604051908082528060200260200182016040528015610acd57816020015b610aba612e37565b815260200190600190039081610ab25790505b50816080018190525060405180604001604052807f0c5d3bbdad6d1f8a5a50a3e3726e2a54a7da1b4681b32c1600804bc29fd8064481526020017f098c2fd5de2f20949322a9152278679d53321e604869dc0f4fc200726f799b328152508160800151600081518110610b69577f4e487b7100000000000000000000000000000000000000000000000000000000600052603260045260246000fd5b602002602001018190525060405180604001604052807f08797e734f479efc8528d49260d241c67b26513df69d1ffc07306b0ee0dc9c6481526020017f26930fec31bc757c070036ca44abaf05ab3582f52dee38e9481ea9fb3028e4cb8152508160800151600181518110610c07577f4e487b7100000000000000000000000000000000000000000000000000000000600052603260045260246000fd5b602002602001018190525060405180604001604052807f107bdaf5bdf432de945f679f159241b04335669885dabf3d4ff8b9520869b53581526020017f2e8d93c375460527ef5820fb355817dd1b762d95c6dfc4509190e1c64aa353bc8152508160800151600281518110610ca5577f4e487b7100000000000000000000000000000000000000000000000000000000600052603260045260246000fd5b602002602001018190525060405180604001604052807f03ba3d86e9d3a562f9d69c6f2d594579fe1b024b1182bb0ec049f0f8228588ea81526020017f017d88a5546004457c56762106c31b985fe2f6061679856977fff79f83a844338152508160800151600381518110610d43577f4e487b7100000000000000000000000000000000000000000000000000000000600052603260045260246000fd5b602002602001018190525060405180604001604052807f14df0dd167812f9277edce944702442f686ad00ca2c148d5c310d9b1eaed91b881526020017f2785654a4e85eeba413ba8b82256ae4471487641b6baa3d1743ce1f9ecfc00c88152508160800151600481518110610de1577f4e487b7100000000000000000000000000000000000000000000000000000000600052603260045260246000fd5b602002602001018190525060405180604001604052807f118f7e9628bda04e862f8d22fe59cc98964b8b1779f8ea0441d99c6f7f9a179a81526020017f127e2f365f81a8df71443ea730f01e45f9881184e3adce5b9d2ee6830b960a3f8152508160800151600581518110610e7f577f4e487b7100000000000000000000000000000000000000000000000000000000600052603260045260246000fd5b602002602001018190525060405180604001604052807f05837104e3327f40be1b72697a58fa86e035502a862d43d7b3e9b24edb1942a281526020017f075d415ec83f076db76a912fe2b9cbc00b72331b0b5e957eebbbc2f4260ca6828152508160800151600681518110610f1d577f4e487b7100000000000000000000000000000000000000000000000000000000600052603260045260246000fd5b602002602001018190525060405180604001604052807f1bcbe6ab1e8c251da92ab710ff716307e73f1130e1dd80d8bc439e859d2d6cb881526020017f16ee9a9401fc2755f93e3a9f3881d2dd0fcee5c6885d495635431133b1d26b958152508160800151600781518110610fbb577f4e487b7100000000000000000000000000000000000000000000000000000000600052603260045260246000fd5b602002602001018190525060405180604001604052807f240b714fd213610b64819773d8e73b6bc89c27beef83c2c8a485ea43c6e0f39181526020017f0e3307c64a27dabd432d04c1149bdafbbba73b83897f8f05ce7420264728f7db8152508160800151600881518110611059577f4e487b7100000000000000000000000000000000000000000000000000000000600052603260045260246000fd5b602002602001018190525060405180604001604052807f0ac22ddbc3f9e554725a9eee88517bb7b58bfa74b7f508c18e546a07a5a237ac81526020017f2d0c14f3e6daf6ced4ba9bceeb7c7c26a59a22338624d1882965f211698d570381525081608001516009815181106110f7577f4e487b7100000000000000000000000000000000000000000000000000000000600052603260045260246000fd5b602002602001018190525060405180604001604052807f160d13463458c565972d7686ba157ecebed29ad2eb7256d2dde5edfd23ccf94e81526020017f272da1e2daa309d58d36b6c4300239763042a328338a8324cc709442598f474c8152508160800151600a81518110611195577f4e487b7100000000000000000000000000000000000000000000000000000000600052603260045260246000fd5b602002602001018190525060405180604001604052807f2b19bf4a87e95a73427a1da0e42b5f8881987555f99e73cc23f9884922a880a981526020017f08d9606efdfc56291b4800c1fa3325c075b85a40291f436bd624837a320466fd8152508160800151600b81518110611233577f4e487b7100000000000000000000000000000000000000000000000000000000600052603260045260246000fd5b602002602001018190525060405180604001604052807f0f4a1247b8d06e0b24eadd7e53449c34781a97139dbe314d3bd15414f997544181526020017f2d74fbb2891547942bb0b58a2c4bbf11ce87f770e44f51c9557af7b771273fe48152508160800151600c815181106112d1577f4e487b7100000000000000000000000000000000000000000000000000000000600052603260045260246000fd5b602002602001018190525060405180604001604052807f2e5ba8f7c323873ca9cdc4e855d83159e1722c5801c1db633bc15a1bf1e1fa1281526020017f2c5dd14aa0dca438b030f6caf7a0f58947709d50eff44435fc416bdf508490d98152508160800151600d8151811061136f577f4e487b7100000000000000000000000000000000000000000000000000000000600052603260045260246000fd5b602002602001018190525060405180604001604052807f2ba84542b98f5185ae8beaa0281c191bb952dd5f3ce32282431f3c5c10cde30f81526020017f15bf8614b67204809dd313910dea5673b003e718ac2313d98f6d8951a70761068152508160800151600e8151811061140d577f4e487b7100000000000000000000000000000000000000000000000000000000600052603260045260246000fd5b602002602001018190525060405180604001604052807f01c6f79a035f075a25e655db50f64992a822df1f82d288dba9bf94dc057d6fcc81526020017f2572f684902b472dbdf4e057f72ce5d9bd6f0a191a9cbe2d47dc5e5a3529cab88152508160800151600f815181106114ab577f4e487b7100000000000000000000000000000000000000000000000000000000600052603260045260246000fd5b602002602001018190525060405180604001604052807f163ebe8cccaf84377729036d807b50ba7d5db8e23cf2a735726a580c7265947181526020017f0180d3c17ede2ff0106567273e3705b1a2ccb31cf4fff19c51da6ea7426005de8152508160800151601081518110611549577f4e487b7100000000000000000000000000000000000000000000000000000000600052603260045260246000fd5b602002602001018190525060405180604001604052807f118a0ef1f85397bfaed7e4f7434863558f7bc17c691dc5f51ac50fa417a22e0a81526020017f14c593f3c8e1d5d70ee3c0710811e32f1ba4bc05757b03e01a267c2d5823eb4981525081608001516011815181106115e7577f4e487b7100000000000000000000000000000000000000000000000000000000600052603260045260246000fd5b602002602001018190525060405180604001604052807f0cb95e14ef1ce080685972ccfd1ed926506f3c465f60ba5107bc2fb8e623017381526020017f0f164db7b1d7d86938174367189322e05cb981e599c5f1074737bb188d1726b98152508160800151601281518110611685577f4e487b7100000000000000000000000000000000000000000000000000000000600052603260045260246000fd5b602002602001018190525060405180604001604052807f14ba34fbe09d0e7ad874af2a0f165fa17f3fcad84c4c8f459c82140c744b64db81526020017f2d96fdea563d77980234d1e0770cb3c106934ebcff47fb6569506450cb7cd26e8152508160800151601381518110611723577f4e487b7100000000000000000000000000000000000000000000000000000000600052603260045260246000fd5b602002602001018190525060405180604001604052807f2c62c106cb5abed558caa31e87daee1fc6874ec9be800e27fad3535249c3245e81526020017f1affb366728584591b00e0d73fadabf57a08fe5dab63304989a01b9cdc82792881525081608001516014815181106117c1577f4e487b7100000000000000000000000000000000000000000000000000000000600052603260045260246000fd5b602002602001018190525060405180604001604052807f0517c6c88a3bf2b8bc121b01cd4d75476e854752c4ef02817bf6e9f625f700ff81526020017f03512055919478bc7073892694d8917553c5c1db35c4313345dbe1fb8d9a4314815250816080015160158151811061185f577f4e487b7100000000000000000000000000000000000000000000000000000000600052603260045260246000fd5b602002602001018190525060405180604001604052807f0818c01ed860dd5fcf31704601822d601ced9f6aed62bd603d31d311efc0736381526020017f012dc3b5c34a0cd99b3ef70fa8a44b7e77fac40a7f77bb506b7dfd43957607d781525081608001516016815181106118fd577f4e487b7100000000000000000000000000000000000000000000000000000000600052603260045260246000fd5b602002602001018190525060405180604001604052807f08eb573dd48f723484b866cfbf6eaab3742ca07e6b945d13a7828e6fc49835e281526020017f28f1c14d055c40dde3b91eb4ac439848013e02bc3f13e5d5b001681a1c4d6a80815250816080015160178151811061199b577f4e487b7100000000000000000000000000000000000000000000000000000000600052603260045260246000fd5b602002602001018190525060405180604001604052807f096ac05350842a96d5799f886198676db83332aca5e74984dcb52b75a293afe981526020017f0cf24cd4bdabd5b905310b6bbd8f8cd64380f65856434b03cea4d21f98163c9e8152508160800151601881518110611a39577f4e487b7100000000000000000000000000000000000000000000000000000000600052603260045260246000fd5b602002602001018190525060405180604001604052807f15e40d44ef1520df6a19ff0a9be557472540a2ba81cd6e8e27445f381e57173581526020017f2b0a872e66c73aa43b84cac00ffedaaac212ae29dcae5454f067d301155356d58152508160800151601981518110611ad7577f4e487b7100000000000000000000000000000000000000000000000000000000600052603260045260246000fd5b602002602001018190525060405180604001604052807f1302e213aba18e671b549c060bc32e80a5927793a0a33d4b94ad57d3727ed99381526020017f23daf78e20dc63fc4b117d6c1d942274353cdca062419ba1f5ff33a12fa521b68152508160800151601a81518110611b75577f4e487b7100000000000000000000000000000000000000000000000000000000600052603260045260246000fd5b602002602001018190525060405180604001604052807f1fb9aacb4bda03ce1dd34b86e4cef0c9322aa49d0c20aa9758f827c74317279c81526020017f0b443224df37a1345daa0269e1c8d3f4478fef4d3e42b425f9d280152a86e6f78152508160800151601b81518110611c13577f4e487b7100000000000000000000000000000000000000000000000000000000600052603260045260246000fd5b602002602001018190525060405180604001604052807f08d8c92eb4b80578dfc5af5ecb8bbbbf92f0f05ca7e725baa90712a7a55fd37381526020017f1ebf6ff2739d7a9d56f78392a8d7cdac7e8b8fcb0bb23402609df577252c39fc8152508160800151601c81518110611cb1577f4e487b7100000000000000000000000000000000000000000000000000000000600052603260045260246000fd5b602002602001018190525060405180604001604052807f0f4db8619b0a17597bcb926458f9882344566d8edcbdb2f62dcad9078f02c38d81526020017f0d661d5deb59b335c2902bc003e9b67da88f6c6a39448b584339975ecfb35cd08152508160800151601d81518110611d4f577f4e487b7100000000000000000000000000000000000000000000000000000000600052603260045260246000fd5b602002602001018190525060405180604001604052807f1ecc126b9759bc9fafeb7f041cc6913de663b1d9bcf2f11736407740bfbdeec981526020017f0cc614a5744e839f89e03164a16de52cc936cfd7cab843f69de5a2db1229e2498152508160800151601e81518110611ded577f4e487b7100000000000000000000000000000000000000000000000000000000600052603260045260246000fd5b602002602001018190525060405180604001604052807f24ad0aedc5521ca230a91c95db462967feb514012fc34d1e04ee7c23677f1f5281526020017f14fa778c2c08170c7040daf64635c478692e1e5f94b3052438e91948b01838438152508160800151601f81518110611e8b577f4e487b7100000000000000000000000000000000000000000000000000000000600052603260045260246000fd5b602002602001018190525060405180604001604052807f2beff928c0b69faea82981e81db9db0c92d37bd5450e615705fd4ef1f4e408e581526020017f2d4281a2721ed181b2b007cc203628ccb7eb9798852f4d1b40e9333aa1db1c7c8152508160800151602081518110611f29577f4e487b7100000000000000000000000000000000000000000000000000000000600052603260045260246000fd5b602002602001018190525060405180604001604052807f17d9c4856eb1c999415e23cd3ac5979d37312fc45c11882166c932fb848cb93c81526020017f0c0c544c4eede84def2436a07b44969a3c7c02d2f92676e3fcdba729a763b15d8152508160800151602181518110611fc7577f4e487b7100000000000000000000000000000000000000000000000000000000600052603260045260246000fd5b602002602001018190525060405180604001604052807f28d5c548fab5eba0e48ad4e3b8d0b7ec923bdc4b9c2c9bea2c62a2d6ef006ee681526020017e51bac7c8cec6ad6d7cff6615ded2b728d4490547a6c6495f82589458f6f3908152508160800151602281518110612064577f4e487b7100000000000000000000000000000000000000000000000000000000600052603260045260246000fd5b602002602001018190525090565b61207a612e37565b612082612e51565b8360000151816000600381106120c1577f4e487b7100000000000000000000000000000000000000000000000000000000600052603260045260246000fd5b602002018181525050836020015181600160038110612109577f4e487b7100000000000000000000000000000000000000000000000000000000600052603260045260246000fd5b602002018181525050828160026003811061214d577f4e487b7100000000000000000000000000000000000000000000000000000000600052603260045260246000fd5b602002018181525050600060608360808460076107d05a03fa9050806000811461217657612178565bfe5b50806121b9576040517f08c379a00000000000000000000000000000000000000000000000000000000081526004016121b090613233565b60405180910390fd5b505092915050565b6121c9612e37565b6121d1612e73565b836000015181600060048110612210577f4e487b7100000000000000000000000000000000000000000000000000000000600052603260045260246000fd5b602002018181525050836020015181600160048110612258577f4e487b7100000000000000000000000000000000000000000000000000000000600052603260045260246000fd5b6020020181815250508260000151816002600481106122a0577f4e487b7100000000000000000000000000000000000000000000000000000000600052603260045260246000fd5b6020020181815250508260200151816003600481106122e8577f4e487b7100000000000000000000000000000000000000000000000000000000600052603260045260246000fd5b602002018181525050600060608360c08460066107d05a03fa9050806000811461231157612313565bfe5b5080612354576040517f08c379a000000000000000000000000000000000000000000000000000000000815260040161234b90613293565b60405180910390fd5b505092915050565b612364612e37565b60007f30644e72e131a029b85045b68181585d97816a916871ca8d3c208c16d87cfd479050600083600001511480156123a1575060008360200151145b156123c55760405180604001604052806000815260200160008152509150506123fc565b6040518060400160405280846000015181526020018285602001516123ea91906134ef565b836123f5919061342b565b8152509150505b919050565b600080600467ffffffffffffffff811115612445577f4e487b7100000000000000000000000000000000000000000000000000000000600052604160045260246000fd5b60405190808252806020026020018201604052801561247e57816020015b61246b612e37565b8152602001906001900390816124635790505b5090506000600467ffffffffffffffff8111156124c4577f4e487b7100000000000000000000000000000000000000000000000000000000600052604160045260246000fd5b6040519080825280602002602001820160405280156124fd57816020015b6124ea612e95565b8152602001906001900390816124e25790505b5090508a8260008151811061253b577f4e487b7100000000000000000000000000000000000000000000000000000000600052603260045260246000fd5b60200260200101819052508882600181518110612581577f4e487b7100000000000000000000000000000000000000000000000000000000600052603260045260246000fd5b602002602001018190525086826002815181106125c7577f4e487b7100000000000000000000000000000000000000000000000000000000600052603260045260246000fd5b6020026020010181905250848260038151811061260d577f4e487b7100000000000000000000000000000000000000000000000000000000600052603260045260246000fd5b60200260200101819052508981600081518110612653577f4e487b7100000000000000000000000000000000000000000000000000000000600052603260045260246000fd5b60200260200101819052508781600181518110612699577f4e487b7100000000000000000000000000000000000000000000000000000000600052603260045260246000fd5b602002602001018190525085816002815181106126df577f4e487b7100000000000000000000000000000000000000000000000000000000600052603260045260246000fd5b60200260200101819052508381600381518110612725577f4e487b7100000000000000000000000000000000000000000000000000000000600052603260045260246000fd5b602002602001018190525061273a828261274a565b9250505098975050505050505050565b60008151835114612790576040517f08c379a000000000000000000000000000000000000000000000000000000000815260040161278790613273565b60405180910390fd5b60008351905060006006826127a591906133d1565b905060008167ffffffffffffffff8111156127e9577f4e487b7100000000000000000000000000000000000000000000000000000000600052604160045260246000fd5b6040519080825280602002602001820160405280156128175781602001602082028036833780820191505090505b50905060005b83811015612cfc5786818151811061285e577f4e487b7100000000000000000000000000000000000000000000000000000000600052603260045260246000fd5b60200260200101516000015182600060068461287a91906133d1565b612884919061337b565b815181106128bb577f4e487b7100000000000000000000000000000000000000000000000000000000600052603260045260246000fd5b602002602001018181525050868181518110612900577f4e487b7100000000000000000000000000000000000000000000000000000000600052603260045260246000fd5b60200260200101516020015182600160068461291c91906133d1565b612926919061337b565b8151811061295d577f4e487b7100000000000000000000000000000000000000000000000000000000600052603260045260246000fd5b6020026020010181815250508581815181106129a2577f4e487b7100000000000000000000000000000000000000000000000000000000600052603260045260246000fd5b6020026020010151600001516000600281106129e7577f4e487b7100000000000000000000000000000000000000000000000000000000600052603260045260246000fd5b60200201518260026006846129fc91906133d1565b612a06919061337b565b81518110612a3d577f4e487b7100000000000000000000000000000000000000000000000000000000600052603260045260246000fd5b602002602001018181525050858181518110612a82577f4e487b7100000000000000000000000000000000000000000000000000000000600052603260045260246000fd5b602002602001015160000151600160028110612ac7577f4e487b7100000000000000000000000000000000000000000000000000000000600052603260045260246000fd5b6020020151826003600684612adc91906133d1565b612ae6919061337b565b81518110612b1d577f4e487b7100000000000000000000000000000000000000000000000000000000600052603260045260246000fd5b602002602001018181525050858181518110612b62577f4e487b7100000000000000000000000000000000000000000000000000000000600052603260045260246000fd5b602002602001015160200151600060028110612ba7577f4e487b7100000000000000000000000000000000000000000000000000000000600052603260045260246000fd5b6020020151826004600684612bbc91906133d1565b612bc6919061337b565b81518110612bfd577f4e487b7100000000000000000000000000000000000000000000000000000000600052603260045260246000fd5b602002602001018181525050858181518110612c42577f4e487b7100000000000000000000000000000000000000000000000000000000600052603260045260246000fd5b602002602001015160200151600160028110612c87577f4e487b7100000000000000000000000000000000000000000000000000000000600052603260045260246000fd5b6020020151826005600684612c9c91906133d1565b612ca6919061337b565b81518110612cdd577f4e487b7100000000000000000000000000000000000000000000000000000000600052603260045260246000fd5b6020026020010181815250508080612cf4906134a6565b91505061281d565b50612d05612ebb565b6000602082602086026020860160086107d05a03fa90508060008114612d2a57612d2c565bfe5b5080612d6d576040517f08c379a0000000000000000000000000000000000000000000000000000000008152600401612d64906132b3565b60405180910390fd5b600082600060018110612da9577f4e487b7100000000000000000000000000000000000000000000000000000000600052603260045260246000fd5b602002015114159550505050505092915050565b6040518060600160405280612dd0612e37565b8152602001612ddd612e95565b8152602001612dea612e37565b81525090565b6040518060a00160405280612e03612e37565b8152602001612e10612e95565b8152602001612e1d612e95565b8152602001612e2a612e95565b8152602001606081525090565b604051806040016040528060008152602001600081525090565b6040518060600160405280600390602082028036833780820191505090505090565b6040518060800160405280600490602082028036833780820191505090505090565b6040518060400160405280612ea8612edd565b8152602001612eb5612edd565b81525090565b6040518060200160405280600190602082028036833780820191505090505090565b6040518060400160405280600290602082028036833780820191505090505090565b6000612f12612f0d846132f8565b6132d3565b90508082856040860282011115612f2857600080fd5b60005b85811015612f585781612f3e888261304f565b845260208401935060408301925050600181019050612f2b565b5050509392505050565b6000612f75612f708461331e565b6132d3565b90508082856020860282011115612f8b57600080fd5b60005b85811015612fbb5781612fa1888261309d565b845260208401935060208301925050600181019050612f8e565b5050509392505050565b6000612fd8612fd384613344565b6132d3565b90508082856020860282011115612fee57600080fd5b60005b8581101561301e5781613004888261309d565b845260208401935060208301925050600181019050612ff1565b5050509392505050565b600082601f83011261303957600080fd5b6002613046848285612eff565b91505092915050565b600082601f83011261306057600080fd5b600261306d848285612f62565b91505092915050565b600082601f83011261308757600080fd5b6022613094848285612fc5565b91505092915050565b6000813590506130ac816136b4565b92915050565b60008060008061054085870312156130c957600080fd5b60006130d78782880161304f565b94505060406130e887828801613028565b93505060c06130f98782880161304f565b92505061010061310b87828801613076565b91505092959194509250565b6131208161345f565b82525050565b600061313360128361336a565b915061313e826135be565b602082019050919050565b600061315660128361336a565b9150613161826135e7565b602082019050919050565b6000613179601f8361336a565b915061318482613610565b602082019050919050565b600061319c60168361336a565b91506131a782613639565b602082019050919050565b60006131bf60128361336a565b91506131ca82613662565b602082019050919050565b60006131e260158361336a565b91506131ed8261368b565b602082019050919050565b600060208201905061320d6000830184613117565b92915050565b6000602082019050818103600083015261322c81613126565b9050919050565b6000602082019050818103600083015261324c81613149565b9050919050565b6000602082019050818103600083015261326c8161316c565b9050919050565b6000602082019050818103600083015261328c8161318f565b9050919050565b600060208201905081810360008301526132ac816131b2565b9050919050565b600060208201905081810360008301526132cc816131d5565b9050919050565b60006132dd6132ee565b90506132e98282613475565b919050565b6000604051905090565b600067ffffffffffffffff8211156133135761331261357e565b5b602082029050919050565b600067ffffffffffffffff8211156133395761333861357e565b5b602082029050919050565b600067ffffffffffffffff82111561335f5761335e61357e565b5b602082029050919050565b600082825260208201905092915050565b60006133868261346b565b91506133918361346b565b9250827fffffffffffffffffffffffffffffffffffffffffffffffffffffffffffffffff038211156133c6576133c5613520565b5b828201905092915050565b60006133dc8261346b565b91506133e78361346b565b9250817fffffffffffffffffffffffffffffffffffffffffffffffffffffffffffffffff04831182151516156134205761341f613520565b5b828202905092915050565b60006134368261346b565b91506134418361346b565b92508282101561345457613453613520565b5b828203905092915050565b60008115159050919050565b6000819050919050565b61347e826135ad565b810181811067ffffffffffffffff8211171561349d5761349c61357e565b5b80604052505050565b60006134b18261346b565b91507fffffffffffffffffffffffffffffffffffffffffffffffffffffffffffffffff8214156134e4576134e3613520565b5b600182019050919050565b60006134fa8261346b565b91506135058361346b565b9250826135155761351461354f565b5b828206905092915050565b7f4e487b7100000000000000000000000000000000000000000000000000000000600052601160045260246000fd5b7f4e487b7100000000000000000000000000000000000000000000000000000000600052601260045260246000fd5b7f4e487b7100000000000000000000000000000000000000000000000000000000600052604160045260246000fd5b6000601f19601f8301169050919050565b7f76657269666965722d6261642d696e7075740000000000000000000000000000600082015250565b7f70616972696e672d6d756c2d6661696c65640000000000000000000000000000600082015250565b7f76657269666965722d6774652d736e61726b2d7363616c61722d6669656c6400600082015250565b7f70616972696e672d6c656e677468732d6661696c656400000000000000000000600082015250565b7f70616972696e672d6164642d6661696c65640000000000000000000000000000600082015250565b7f70616972696e672d6f70636f64652d6661696c65640000000000000000000000600082015250565b6136bd8161346b565b81146136c857600080fd5b5056fea2646970667358221220e9a41939574c32b40156e939686b67974d7ef94e5a1c1262e63a5fa76adc3bdf64736f6c63430008040033",
  "linkReferences": {},
  "deployedLinkReferences": {}
}