{
  "_format": "hh-sol-artifact-1",
  "contractName": "Verifier_deposit",
  "sourceName": "contracts/verifier_deposit.sol",
  "abi": [
    {
      "inputs": [
        {
          "internalType": "uint256[2]",
          "name": "a",
          "type": "uint256[2]"
        },
        {
          "internalType": "uint256[2][2]",
          "name": "b",
          "type": "uint256[2][2]"
        },
        {
          "internalType": "uint256[2]",
          "name": "c",
          "type": "uint256[2]"
        },
        {
          "internalType": "uint256[34]",
          "name": "input",
          "type": "uint256[34]"
        }
      ],
      "name": "verifyProof",
      "outputs": [
        {
          "internalType": "bool",
          "name": "r",
          "type": "bool"
        }
      ],
      "stateMutability": "view",
      "type": "function"
    }
  ],
  "bytecode": "0x608060405234801561001057600080fd5b50613701806100206000396000f3fe608060405234801561001057600080fd5b506004361061002b5760003560e01c80638525a61d14610030575b600080fd5b61004a600480360381019061004591906130b2565b610060565b60405161005791906131f8565b60405180910390f35b600061006a612dbd565b6040518060400160405280876000600281106100af577f4e487b7100000000000000000000000000000000000000000000000000000000600052603260045260246000fd5b60200201518152602001876001600281106100f3577f4e487b7100000000000000000000000000000000000000000000000000000000600052603260045260246000fd5b602002015181525081600001819052506040518060400160405280604051806040016040528088600060028110610153577f4e487b7100000000000000000000000000000000000000000000000000000000600052603260045260246000fd5b6020020151600060028110610191577f4e487b7100000000000000000000000000000000000000000000000000000000600052603260045260246000fd5b60200201518152602001886000600281106101d5577f4e487b7100000000000000000000000000000000000000000000000000000000600052603260045260246000fd5b6020020151600160028110610213577f4e487b7100000000000000000000000000000000000000000000000000000000600052603260045260246000fd5b60200201518152508152602001604051806040016040528088600160028110610265577f4e487b7100000000000000000000000000000000000000000000000000000000600052603260045260246000fd5b60200201516000600281106102a3577f4e487b7100000000000000000000000000000000000000000000000000000000600052603260045260246000fd5b60200201518152602001886001600281106102e7577f4e487b7100000000000000000000000000000000000000000000000000000000600052603260045260246000fd5b6020020151600160028110610325577f4e487b7100000000000000000000000000000000000000000000000000000000600052603260045260246000fd5b6020020151815250815250816020018190525060405180604001604052808560006002811061037d577f4e487b7100000000000000000000000000000000000000000000000000000000600052603260045260246000fd5b60200201518152602001856001600281106103c1577f4e487b7100000000000000000000000000000000000000000000000000000000600052603260045260246000fd5b602002015181525081604001819052506000602267ffffffffffffffff811115610414577f4e487b7100000000000000000000000000000000000000000000000000000000600052604160045260246000fd5b6040519080825280602002602001820160405280156104425781602001602082028036833780820191505090505b50905060005b60228110156104e75784816022811061048a577f4e487b7100000000000000000000000000000000000000000000000000000000600052603260045260246000fd5b60200201518282815181106104c8577f4e487b7100000000000000000000000000000000000000000000000000000000600052603260045260246000fd5b60200260200101818152505080806104df906134a6565b915050610448565b5060006104f48284610514565b14156105055760019250505061050c565b6000925050505b949350505050565b6000807f30644e72e131a029b85045b68181585d2833e84879b9709143e1f593f00000019050600061054461079f565b90508060800151516001865161055a919061337b565b1461059a576040517f08c379a000000000000000000000000000000000000000000000000000000000815260040161059190613213565b60405180910390fd5b60006040518060400160405280600081526020016000815250905060005b86518110156106fb57838782815181106105fb577f4e487b7100000000000000000000000000000000000000000000000000000000600052603260045260246000fd5b602002602001015110610643576040517f08c379a000000000000000000000000000000000000000000000000000000000815260040161063a90613253565b60405180910390fd5b6106e6826106e1856080015160018561065c919061337b565b81518110610693577f4e487b7100000000000000000000000000000000000000000000000000000000600052603260045260246000fd5b60200260200101518a85815181106106d4577f4e487b7100000000000000000000000000000000000000000000000000000000600052603260045260246000fd5b6020026020010151612072565b6121c1565b915080806106f3906134a6565b9150506105b8565b5061074b81836080015160008151811061073e577f4e487b7100000000000000000000000000000000000000000000000000000000600052603260045260246000fd5b60200260200101516121c1565b905061078161075d866000015161235c565b8660200151846000015185602001518587604001518b604001518960600151612401565b6107915760019350505050610799565b600093505050505b92915050565b6107a7612df0565b60405180604001604052807f2d4d9aa7e302d9df41749d5507949d05dbea33fbb16c643b22f599a2be6df2e281526020017f14bedd503c37ceb061d8ec60209fe345ce89830a19230301f076caff004d19268152508160000181905250604051806040016040528060405180604001604052807f0967032fcbf776d1afc985f88877f182d38480a653f2decaa9794cbc3bf3060c81526020017f0e187847ad4c798374d0d6732bf501847dd68bc0e071241e0213bc7fc13db7ab815250815260200160405180604001604052807f304cfbd1e08a704a99f5e847d93f8c3caafddec46b7a0d379da69a4d112346a781526020017f1739c1b1a457a8c7313123d24d2f9192f896b7c63eea05a9d57f06547ad0cec88152508152508160200181905250604051806040016040528060405180604001604052807f198e9393920d483a7260bfb731fb5d25f1aa493335a9e71297e485b7aef312c281526020017f1800deef121f1e76426a00665e5c4479674322d4f75edadd46debd5cd992f6ed815250815260200160405180604001604052807f090689d0585ff075ec9e99ad690c3395bc4b313370b38ef355acdadcd122975b81526020017f12c85ea5db8c6deb4aab71808dcb408fe3d1e7690c43d37b4ce6cc0166fa7daa8152508152508160400181905250604051806040016040528060405180604001604052807f06bcd6fa5dcd0f3922eaa2dfbd9a2bcadf9199848033b457262d8521172c7f6481526020017f05b3d41c87fab5e068f2c9872310b2d4b66ab2e5a41caaf0e30b73e320be8bc9815250815260200160405180604001604052807f282d5db5700fc343acbbdfaf5a162490d76bd7f6a8a599d165beb77095d5f5d281526020017f020730581363c26a650bf0e77b71449b10d4f85cd25c32ce2f18aec7a5bd14db8152508152508160600181905250602367ffffffffffffffff811115610a94577f4e487b7100000000000000000000000000000000000000000000000000000000600052604160045260246000fd5b604051908082528060200260200182016040528015610acd57816020015b610aba612e37565b815260200190600190039081610ab25790505b50816080018190525060405180604001604052807f1f64947a6020395c5e6d84ccab3bd189c80fc81b829d77136122695f5b04895381526020017f04a2da1697457b50805b33957797bae3eb2bad3eecff072d944a9fcfa48f4ed18152508160800151600081518110610b69577f4e487b7100000000000000000000000000000000000000000000000000000000600052603260045260246000fd5b602002602001018190525060405180604001604052807f21d9aaaf749a1f7d21a0883cb08eb8800d126c86e03d56512e24f199b8a1025581526020017f2cfedc8170562a1b33208fb6b761af78863b9fc1ad0c9af6176a3ac17ae3f65a8152508160800151600181518110610c07577f4e487b7100000000000000000000000000000000000000000000000000000000600052603260045260246000fd5b602002602001018190525060405180604001604052807f028b7ec6d26ca6dd90ba850d67d46fe2bed31799f55d181f9b1ad2988939006b81526020017f2925e5bdc807ac0297271232b4f546c4c906565db67af5e135770ddbabb7f61d8152508160800151600281518110610ca5577f4e487b7100000000000000000000000000000000000000000000000000000000600052603260045260246000fd5b602002602001018190525060405180604001604052807f0dcd731d714038c060bebc3b3086ee7c54db4820cf2050cc25e81967613f36e081526020017f13ba363ce0a1ac96f4a1c143272179dbdf3439d4fc51178087376e0da9042ffa8152508160800151600381518110610d43577f4e487b7100000000000000000000000000000000000000000000000000000000600052603260045260246000fd5b602002602001018190525060405180604001604052807f045f5701ca6191ea9f64762508469b30ef7822b5052e325a5f34dad27567b90381526020017f1fd903d9c5152f9f7d64ae95f6e639da512bc8616a3b875af06748c970aab75d8152508160800151600481518110610de1577f4e487b7100000000000000000000000000000000000000000000000000000000600052603260045260246000fd5b602002602001018190525060405180604001604052807f2caafdf50ba7884b1433a15a312aecca8f2fdbfebe9db0b6591335eb29761dac81526020017f017f056593f6f1d1f48c628b8b3d59bb831c38ce5d0d3400e40ced808fe10f038152508160800151600581518110610e7f577f4e487b7100000000000000000000000000000000000000000000000000000000600052603260045260246000fd5b602002602001018190525060405180604001604052807f0840a97a89a793ddc84a50e6e3d9824dd4f2cd93dbef2e0b4a5da6ee2a91ec4181526020017f2c282694ba525f61a20272f4337621855385b1c948b276a02596787f34af85a88152508160800151600681518110610f1d577f4e487b7100000000000000000000000000000000000000000000000000000000600052603260045260246000fd5b602002602001018190525060405180604001604052807f02d010075ff4ae7685f3780ed9f45bbf6ac93687e95849612381d2cd45c9b3da81526020017f07dbe251e2eea2234fa28d38fd88baf942d31e767287dbecbc76b978bdda24f48152508160800151600781518110610fbb577f4e487b7100000000000000000000000000000000000000000000000000000000600052603260045260246000fd5b602002602001018190525060405180604001604052807f0274fcfd32c3961e12a491c93dd7463e05acd4ed071e98f675d65c779b20cb3c81526020017f298b3585a1cfcd0162b726c676c161937ace914d9d42e5793c4f3347599ff5728152508160800151600881518110611059577f4e487b7100000000000000000000000000000000000000000000000000000000600052603260045260246000fd5b602002602001018190525060405180604001604052807f1d426ab093e1ad5794abe0f0b2d06b615b5a7910ae6a36b6c7f7455a00c6025c81526020017f1680d2aa8554e66034454c1a5c2c67c75695757d3c9c26dd4562d2343e4755fa81525081608001516009815181106110f7577f4e487b7100000000000000000000000000000000000000000000000000000000600052603260045260246000fd5b602002602001018190525060405180604001604052807f262da09ab7412dcceba290c3b717eae0c2814da462e21cce3857b46ece0226c081526020017f1dd67fefe04059d0bbd736c6064cf6673028e3d542f1c8ac6bd631d5af7edb5e8152508160800151600a81518110611195577f4e487b7100000000000000000000000000000000000000000000000000000000600052603260045260246000fd5b602002602001018190525060405180604001604052807f17b2922377ca6d84f5061f43d51b2d4072393079b19040eb716b6a9fcf161a2881526020017f24548e8f2be0a94815593d6dd58626601c887f97a735d2b3eaf0873dd940a0ed8152508160800151600b81518110611233577f4e487b7100000000000000000000000000000000000000000000000000000000600052603260045260246000fd5b602002602001018190525060405180604001604052807e542d9185f3a2760d1572f993c08b4dce64a221fc7052e4a669b7f100007fd481526020017f19365992b03438b2340d795b4b3ebaf2973ca871fa01fd83ddcb259173d9709e8152508160800151600c815181106112d0577f4e487b7100000000000000000000000000000000000000000000000000000000600052603260045260246000fd5b602002602001018190525060405180604001604052807f233b0ec2a5f466b39049cd2ae5c8cde4cf703845e652a3b4b8761527c0750d8281526020017f05cf80237fb5a6b996e89e989fe33ef819a6f18ec1609613949b486e7cc8108e8152508160800151600d8151811061136e577f4e487b7100000000000000000000000000000000000000000000000000000000600052603260045260246000fd5b602002602001018190525060405180604001604052807f1223d06236c74735eda59d964bf00ae98c68b72e75e81f1ab2b42a360a223c7381526020017f1f1f655878c5e6de88197fed246cdd4c548d92ba008f1902f1dbd758bac75ada8152508160800151600e8151811061140c577f4e487b7100000000000000000000000000000000000000000000000000000000600052603260045260246000fd5b602002602001018190525060405180604001604052807f1e8a94322f7e869e5ae404d05f3c509dbc16427a53e873d266c6bc41b3be4ec381526020017f204bbfa333cc05673090978c5bac518742c2f7a4411659272ded5fb9707c44648152508160800151600f815181106114aa577f4e487b7100000000000000000000000000000000000000000000000000000000600052603260045260246000fd5b602002602001018190525060405180604001604052807f1a1ea307da6c921cf633891b603581a7e29403910b16f1878cba4745e9e898d281526020017f09032236d48a3612eb16975dca288a27160240972900d11a8299de88adc8e7048152508160800151601081518110611548577f4e487b7100000000000000000000000000000000000000000000000000000000600052603260045260246000fd5b602002602001018190525060405180604001604052807f08fef9536929e2548e4af2a9da95ed52d0a56e8977bca533736d244343ce52cb81526020017f041475400725c45381924e0a2014efbc6f59d96ccac3aa9a1ec4d075b282118a81525081608001516011815181106115e6577f4e487b7100000000000000000000000000000000000000000000000000000000600052603260045260246000fd5b602002602001018190525060405180604001604052807f24616ba380fb9e03c7b205916321a4a07a8d9f5fda125a1dab5fbe164fcc609f81526020017f2885f988ca76ed8304bf649d975c6966df63b0dc8b406cff69f38ca0c5d8109e8152508160800151601281518110611684577f4e487b7100000000000000000000000000000000000000000000000000000000600052603260045260246000fd5b602002602001018190525060405180604001604052807f16746b77a999e7010b8e4cb78a8de4d6541238fce0104068efcb454d8da4fd8481526020017f10b870c817d164f8718478c81dab96caad1037d9848805700e87130a59c664268152508160800151601381518110611722577f4e487b7100000000000000000000000000000000000000000000000000000000600052603260045260246000fd5b602002602001018190525060405180604001604052807f075db54d3aa6d211dca46e129906b1a876cc9f226093e6b50d8217a82055752481526020017f2555ebe2d3f2f95de847c7bd6d170942d0b99adbbc3a751131a9abd77f885fb881525081608001516014815181106117c0577f4e487b7100000000000000000000000000000000000000000000000000000000600052603260045260246000fd5b602002602001018190525060405180604001604052807f06adfac6f2aa27d11d563c37023357a0b2b8328cc06e2b33e3691d87f395917981526020017f22333de92733d603cd4725b5a2a9cb5d3b52341039f84f2e06ac983d0e86ee4b815250816080015160158151811061185e577f4e487b7100000000000000000000000000000000000000000000000000000000600052603260045260246000fd5b602002602001018190525060405180604001604052807f2af635ae36c94a827f74014b14f81a9041f4be7faa715921d79c1ff4c1e4fa5f81526020017f21e1d2401011c3a4f55ad07ecf50a3dd28b8e2403013f5010e6310449180ae2e81525081608001516016815181106118fc577f4e487b7100000000000000000000000000000000000000000000000000000000600052603260045260246000fd5b602002602001018190525060405180604001604052807f134979022b663fccb986b1906cf550965ad0ea9964ae60db283dd8f59813f73781526020017f0d3db140315593c4f9f6b4c6f2e59517460778ce4534057e8c118f461045f60a815250816080015160178151811061199a577f4e487b7100000000000000000000000000000000000000000000000000000000600052603260045260246000fd5b602002602001018190525060405180604001604052807f078275ad0c42f83465781633feb7e47b7fbb0a93744b9dc92c0d6e4239290ef281526020017f1022d15cd312f1429de5a12141ca0fdabff908927fd139de38e9d70b44cf948c8152508160800151601881518110611a38577f4e487b7100000000000000000000000000000000000000000000000000000000600052603260045260246000fd5b602002602001018190525060405180604001604052807f2597f49e5aee4765bc90eeee20a37600e38997e0f1fbd2d026a38871c6c5a38b81526020017f2c92ea67e8b6ea3c499651f9144412fe0235a0fa17c8237e16e5f154a2c37b4b8152508160800151601981518110611ad6577f4e487b7100000000000000000000000000000000000000000000000000000000600052603260045260246000fd5b602002602001018190525060405180604001604052807f1de1fa5f9ee81f3eec9a143b797751a1c1bfe75974a41b3a7f33e51c834770ef81526020017f1292051bd7de8fcbb8c12bbefb2a37946606c45f32a31c343f7c9b23feb0242d8152508160800151601a81518110611b74577f4e487b7100000000000000000000000000000000000000000000000000000000600052603260045260246000fd5b602002602001018190525060405180604001604052807f1e97ff1c08d65f13c3f1091f44a7a21039202e8d645999f7781b2682cd4c5ed681526020017f01a5e773499bb417f269372f81607a37e526160118b0db1c9ed3602fcf6f090d8152508160800151601b81518110611c12577f4e487b7100000000000000000000000000000000000000000000000000000000600052603260045260246000fd5b602002602001018190525060405180604001604052807f2bc318096f7338d875f3030fe425d557046c352c4285fef54d7eab08ca6e4cd381526020017f11cda5b966dbabcc6ecc0e58e0af8a05ae3ef09973a5af9e4fe3885e563e1de48152508160800151601c81518110611cb0577f4e487b7100000000000000000000000000000000000000000000000000000000600052603260045260246000fd5b602002602001018190525060405180604001604052807f2e08938d8e8b5e0fc7a8a8a4ab143cbb90fce83a95e663fe703e2336edf4773981526020017f0a1f573192236acb36a9a6dd160eea4fb661b2afb3e13fbef5eff27eff3e1cad8152508160800151601d81518110611d4e577f4e487b7100000000000000000000000000000000000000000000000000000000600052603260045260246000fd5b602002602001018190525060405180604001604052807f2139aabc92ddf9674786777e23651cc3db22dd055861650d33ce1b83e5caf45d81526020017f2826389cd197a5423e200623acc6cc09ccbb0bd01f4cea474b440d72b2a852138152508160800151601e81518110611dec577f4e487b7100000000000000000000000000000000000000000000000000000000600052603260045260246000fd5b602002602001018190525060405180604001604052807f274cf1e4887a47ae6388ef1330147601c2f8072a90b46bb5a64957157cd11e8e81526020017f11676784d7493861e9adc89d0cbbc7be14f6d0fd64473bd07364d9e6eaa9cd5a8152508160800151601f81518110611e8a577f4e487b7100000000000000000000000000000000000000000000000000000000600052603260045260246000fd5b602002602001018190525060405180604001604052807f16ed19daf92d1de7f1746af0671c62bae338f7758a1ad87436e51ed54f08848d81526020017f170e2aff9a6bd989713536a0fa487ca323df0d48c742a17f8c1971c1813e48018152508160800151602081518110611f28577f4e487b7100000000000000000000000000000000000000000000000000000000600052603260045260246000fd5b602002602001018190525060405180604001604052807f0acf693cffa6bc0b939a897238896bf751e02c751e26251b102ffd2207c75c4981526020017f22ef1cf4727b535c8aa07b65fc02e0148c537eba551e96e91e9118424b7551aa8152508160800151602181518110611fc6577f4e487b7100000000000000000000000000000000000000000000000000000000600052603260045260246000fd5b602002602001018190525060405180604001604052807f09e69cc7a469aaaf85ab90ba5cce689548af9a510e780dae15d329009fd0c1e881526020017f04daa9fabdf17e54a8cc54dcfe809ddb36a218267b46cff3c96e0266334955168152508160800151602281518110612064577f4e487b7100000000000000000000000000000000000000000000000000000000600052603260045260246000fd5b602002602001018190525090565b61207a612e37565b612082612e51565b8360000151816000600381106120c1577f4e487b7100000000000000000000000000000000000000000000000000000000600052603260045260246000fd5b602002018181525050836020015181600160038110612109577f4e487b7100000000000000000000000000000000000000000000000000000000600052603260045260246000fd5b602002018181525050828160026003811061214d577f4e487b7100000000000000000000000000000000000000000000000000000000600052603260045260246000fd5b602002018181525050600060608360808460076107d05a03fa9050806000811461217657612178565bfe5b50806121b9576040517f08c379a00000000000000000000000000000000000000000000000000000000081526004016121b090613233565b60405180910390fd5b505092915050565b6121c9612e37565b6121d1612e73565b836000015181600060048110612210577f4e487b7100000000000000000000000000000000000000000000000000000000600052603260045260246000fd5b602002018181525050836020015181600160048110612258577f4e487b7100000000000000000000000000000000000000000000000000000000600052603260045260246000fd5b6020020181815250508260000151816002600481106122a0577f4e487b7100000000000000000000000000000000000000000000000000000000600052603260045260246000fd5b6020020181815250508260200151816003600481106122e8577f4e487b7100000000000000000000000000000000000000000000000000000000600052603260045260246000fd5b602002018181525050600060608360c08460066107d05a03fa9050806000811461231157612313565bfe5b5080612354576040517f08c379a000000000000000000000000000000000000000000000000000000000815260040161234b90613293565b60405180910390fd5b505092915050565b612364612e37565b60007f30644e72e131a029b85045b68181585d97816a916871ca8d3c208c16d87cfd479050600083600001511480156123a1575060008360200151145b156123c55760405180604001604052806000815260200160008152509150506123fc565b6040518060400160405280846000015181526020018285602001516123ea91906134ef565b836123f5919061342b565b8152509150505b919050565b600080600467ffffffffffffffff811115612445577f4e487b7100000000000000000000000000000000000000000000000000000000600052604160045260246000fd5b60405190808252806020026020018201604052801561247e57816020015b61246b612e37565b8152602001906001900390816124635790505b5090506000600467ffffffffffffffff8111156124c4577f4e487b7100000000000000000000000000000000000000000000000000000000600052604160045260246000fd5b6040519080825280602002602001820160405280156124fd57816020015b6124ea612e95565b8152602001906001900390816124e25790505b5090508a8260008151811061253b577f4e487b7100000000000000000000000000000000000000000000000000000000600052603260045260246000fd5b60200260200101819052508882600181518110612581577f4e487b7100000000000000000000000000000000000000000000000000000000600052603260045260246000fd5b602002602001018190525086826002815181106125c7577f4e487b7100000000000000000000000000000000000000000000000000000000600052603260045260246000fd5b6020026020010181905250848260038151811061260d577f4e487b7100000000000000000000000000000000000000000000000000000000600052603260045260246000fd5b60200260200101819052508981600081518110612653577f4e487b7100000000000000000000000000000000000000000000000000000000600052603260045260246000fd5b60200260200101819052508781600181518110612699577f4e487b7100000000000000000000000000000000000000000000000000000000600052603260045260246000fd5b602002602001018190525085816002815181106126df577f4e487b7100000000000000000000000000000000000000000000000000000000600052603260045260246000fd5b60200260200101819052508381600381518110612725577f4e487b7100000000000000000000000000000000000000000000000000000000600052603260045260246000fd5b602002602001018190525061273a828261274a565b9250505098975050505050505050565b60008151835114612790576040517f08c379a000000000000000000000000000000000000000000000000000000000815260040161278790613273565b60405180910390fd5b60008351905060006006826127a591906133d1565b905060008167ffffffffffffffff8111156127e9577f4e487b7100000000000000000000000000000000000000000000000000000000600052604160045260246000fd5b6040519080825280602002602001820160405280156128175781602001602082028036833780820191505090505b50905060005b83811015612cfc5786818151811061285e577f4e487b7100000000000000000000000000000000000000000000000000000000600052603260045260246000fd5b60200260200101516000015182600060068461287a91906133d1565b612884919061337b565b815181106128bb577f4e487b7100000000000000000000000000000000000000000000000000000000600052603260045260246000fd5b602002602001018181525050868181518110612900577f4e487b7100000000000000000000000000000000000000000000000000000000600052603260045260246000fd5b60200260200101516020015182600160068461291c91906133d1565b612926919061337b565b8151811061295d577f4e487b7100000000000000000000000000000000000000000000000000000000600052603260045260246000fd5b6020026020010181815250508581815181106129a2577f4e487b7100000000000000000000000000000000000000000000000000000000600052603260045260246000fd5b6020026020010151600001516000600281106129e7577f4e487b7100000000000000000000000000000000000000000000000000000000600052603260045260246000fd5b60200201518260026006846129fc91906133d1565b612a06919061337b565b81518110612a3d577f4e487b7100000000000000000000000000000000000000000000000000000000600052603260045260246000fd5b602002602001018181525050858181518110612a82577f4e487b7100000000000000000000000000000000000000000000000000000000600052603260045260246000fd5b602002602001015160000151600160028110612ac7577f4e487b7100000000000000000000000000000000000000000000000000000000600052603260045260246000fd5b6020020151826003600684612adc91906133d1565b612ae6919061337b565b81518110612b1d577f4e487b7100000000000000000000000000000000000000000000000000000000600052603260045260246000fd5b602002602001018181525050858181518110612b62577f4e487b7100000000000000000000000000000000000000000000000000000000600052603260045260246000fd5b602002602001015160200151600060028110612ba7577f4e487b7100000000000000000000000000000000000000000000000000000000600052603260045260246000fd5b6020020151826004600684612bbc91906133d1565b612bc6919061337b565b81518110612bfd577f4e487b7100000000000000000000000000000000000000000000000000000000600052603260045260246000fd5b602002602001018181525050858181518110612c42577f4e487b7100000000000000000000000000000000000000000000000000000000600052603260045260246000fd5b602002602001015160200151600160028110612c87577f4e487b7100000000000000000000000000000000000000000000000000000000600052603260045260246000fd5b6020020151826005600684612c9c91906133d1565b612ca6919061337b565b81518110612cdd577f4e487b7100000000000000000000000000000000000000000000000000000000600052603260045260246000fd5b6020026020010181815250508080612cf4906134a6565b91505061281d565b50612d05612ebb565b6000602082602086026020860160086107d05a03fa90508060008114612d2a57612d2c565bfe5b5080612d6d576040517f08c379a0000000000000000000000000000000000000000000000000000000008152600401612d64906132b3565b60405180910390fd5b600082600060018110612da9577f4e487b7100000000000000000000000000000000000000000000000000000000600052603260045260246000fd5b602002015114159550505050505092915050565b6040518060600160405280612dd0612e37565b8152602001612ddd612e95565b8152602001612dea612e37565b81525090565b6040518060a00160405280612e03612e37565b8152602001612e10612e95565b8152602001612e1d612e95565b8152602001612e2a612e95565b8152602001606081525090565b604051806040016040528060008152602001600081525090565b6040518060600160405280600390602082028036833780820191505090505090565b6040518060800160405280600490602082028036833780820191505090505090565b6040518060400160405280612ea8612edd565b8152602001612eb5612edd565b81525090565b6040518060200160405280600190602082028036833780820191505090505090565b6040518060400160405280600290602082028036833780820191505090505090565b6000612f12612f0d846132f8565b6132d3565b90508082856040860282011115612f2857600080fd5b60005b85811015612f585781612f3e888261304f565b845260208401935060408301925050600181019050612f2b565b5050509392505050565b6000612f75612f708461331e565b6132d3565b90508082856020860282011115612f8b57600080fd5b60005b85811015612fbb5781612fa1888261309d565b845260208401935060208301925050600181019050612f8e565b5050509392505050565b6000612fd8612fd384613344565b6132d3565b90508082856020860282011115612fee57600080fd5b60005b8581101561301e5781613004888261309d565b845260208401935060208301925050600181019050612ff1565b5050509392505050565b600082601f83011261303957600080fd5b6002613046848285612eff565b91505092915050565b600082601f83011261306057600080fd5b600261306d848285612f62565b91505092915050565b600082601f83011261308757600080fd5b6022613094848285612fc5565b91505092915050565b6000813590506130ac816136b4565b92915050565b60008060008061054085870312156130c957600080fd5b60006130d78782880161304f565b94505060406130e887828801613028565b93505060c06130f98782880161304f565b92505061010061310b87828801613076565b91505092959194509250565b6131208161345f565b82525050565b600061313360128361336a565b915061313e826135be565b602082019050919050565b600061315660128361336a565b9150613161826135e7565b602082019050919050565b6000613179601f8361336a565b915061318482613610565b602082019050919050565b600061319c60168361336a565b91506131a782613639565b602082019050919050565b60006131bf60128361336a565b91506131ca82613662565b602082019050919050565b60006131e260158361336a565b91506131ed8261368b565b602082019050919050565b600060208201905061320d6000830184613117565b92915050565b6000602082019050818103600083015261322c81613126565b9050919050565b6000602082019050818103600083015261324c81613149565b9050919050565b6000602082019050818103600083015261326c8161316c565b9050919050565b6000602082019050818103600083015261328c8161318f565b9050919050565b600060208201905081810360008301526132ac816131b2565b9050919050565b600060208201905081810360008301526132cc816131d5565b9050919050565b60006132dd6132ee565b90506132e98282613475565b919050565b6000604051905090565b600067ffffffffffffffff8211156133135761331261357e565b5b602082029050919050565b600067ffffffffffffffff8211156133395761333861357e565b5b602082029050919050565b600067ffffffffffffffff82111561335f5761335e61357e565b5b602082029050919050565b600082825260208201905092915050565b60006133868261346b565b91506133918361346b565b9250827fffffffffffffffffffffffffffffffffffffffffffffffffffffffffffffffff038211156133c6576133c5613520565b5b828201905092915050565b60006133dc8261346b565b91506133e78361346b565b9250817fffffffffffffffffffffffffffffffffffffffffffffffffffffffffffffffff04831182151516156134205761341f613520565b5b828202905092915050565b60006134368261346b565b91506134418361346b565b92508282101561345457613453613520565b5b828203905092915050565b60008115159050919050565b6000819050919050565b61347e826135ad565b810181811067ffffffffffffffff8211171561349d5761349c61357e565b5b80604052505050565b60006134b18261346b565b91507fffffffffffffffffffffffffffffffffffffffffffffffffffffffffffffffff8214156134e4576134e3613520565b5b600182019050919050565b60006134fa8261346b565b91506135058361346b565b9250826135155761351461354f565b5b828206905092915050565b7f4e487b7100000000000000000000000000000000000000000000000000000000600052601160045260246000fd5b7f4e487b7100000000000000000000000000000000000000000000000000000000600052601260045260246000fd5b7f4e487b7100000000000000000000000000000000000000000000000000000000600052604160045260246000fd5b6000601f19601f8301169050919050565b7f76657269666965722d6261642d696e7075740000000000000000000000000000600082015250565b7f70616972696e672d6d756c2d6661696c65640000000000000000000000000000600082015250565b7f76657269666965722d6774652d736e61726b2d7363616c61722d6669656c6400600082015250565b7f70616972696e672d6c656e677468732d6661696c656400000000000000000000600082015250565b7f70616972696e672d6164642d6661696c65640000000000000000000000000000600082015250565b7f70616972696e672d6f70636f64652d6661696c65640000000000000000000000600082015250565b6136bd8161346b565b81146136c857600080fd5b5056fea2646970667358221220a92131cafd5271a608e63779b566be3efa89201fe3751ee3aae3223ca2b201e964736f6c63430008040033",
  "linkReferences": {},
  "deployedLinkReferences": {}
}